{
  "_format": "hh-sol-artifact-1",
  "contractName": "WavePortal",
  "sourceName": "contracts/WavePortal.sol",
  "abi": [
    {
      "inputs": [],
      "stateMutability": "nonpayable",
      "type": "constructor"
    },
    {
      "anonymous": false,
      "inputs": [
        {
          "indexed": true,
          "internalType": "address",
          "name": "from",
          "type": "address"
        },
        {
          "indexed": false,
          "internalType": "uint256",
          "name": "timestamp",
          "type": "uint256"
        },
        {
          "indexed": false,
          "internalType": "string",
          "name": "message",
          "type": "string"
        }
      ],
      "name": "NewWave",
      "type": "event"
    },
    {
      "inputs": [],
      "name": "getAllWaves",
      "outputs": [
        {
          "components": [
            {
              "internalType": "address",
              "name": "waver",
              "type": "address"
            },
            {
              "internalType": "string",
              "name": "message",
              "type": "string"
            },
            {
              "internalType": "uint256",
              "name": "timestamp",
              "type": "uint256"
            }
          ],
          "internalType": "struct WavePortal.Wave[]",
          "name": "",
          "type": "tuple[]"
        }
      ],
      "stateMutability": "view",
      "type": "function"
    },
    {
      "inputs": [],
      "name": "getTotalWaves",
      "outputs": [
        {
          "internalType": "uint256",
          "name": "",
          "type": "uint256"
        }
      ],
      "stateMutability": "view",
      "type": "function"
    },
    {
      "inputs": [
        {
          "internalType": "string",
          "name": "_message",
          "type": "string"
        }
      ],
      "name": "wave",
      "outputs": [],
      "stateMutability": "nonpayable",
      "type": "function"
    }
  ],
  "bytecode": "0x60806040523480156200001157600080fd5b50620000416040518060600160405280602a815260200162000e98602a91396200004760201b620003e91760201c565b620001db565b620000e7816040516024016200005e919062000154565b6040516020818303038152906040527f41304fac000000000000000000000000000000000000000000000000000000007bffffffffffffffffffffffffffffffffffffffffffffffffffffffff19166020820180517bffffffffffffffffffffffffffffffffffffffffffffffffffffffff8381831617835250505050620000ea60201b60201c565b50565b60008151905060006a636f6e736f6c652e6c6f679050602083016000808483855afa5050505050565b6000620001208262000178565b6200012c818562000183565b93506200013e81856020860162000194565b6200014981620001ca565b840191505092915050565b6000602082019050818103600083015262000170818462000113565b905092915050565b600081519050919050565b600082825260208201905092915050565b60005b83811015620001b457808201518184015260208101905062000197565b83811115620001c4576000848401525b50505050565b6000601f19601f8301169050919050565b610cad80620001eb6000396000f3fe608060405234801561001057600080fd5b50600436106100415760003560e01c8063449d46c0146100465780639a2cdc0814610062578063bd43a90814610080575b600080fd5b610060600480360381019061005b91906106f7565b61009e565b005b61006a610216565b604051610077919061099b565b60405180910390f35b610088610298565b60405161009591906108bf565b60405180910390f35b60016000808282546100b09190610aa2565b925050819055506100f76040518060400160405280600d81526020017f25732068617320776176656421000000000000000000000000000000000000008152503383610482565b600160405180606001604052803373ffffffffffffffffffffffffffffffffffffffff16815260200183815260200142815250908060018154018082558091505060019003906000526020600020906003020160009091909190915060008201518160000160006101000a81548173ffffffffffffffffffffffffffffffffffffffff021916908373ffffffffffffffffffffffffffffffffffffffff16021790555060208201518160010190805190602001906101b69291906105ec565b506040820151816002015550503373ffffffffffffffffffffffffffffffffffffffff167f5f7e16dc676677766a70e9c5628aa6c54ddb8b6e5188e2ae1e1f17f1ffbea716428360405161020b9291906109b6565b60405180910390a250565b60006102906040518060400160405280601681526020017f5765206861766520256420746f74616c207761766573000000000000000000008152506000546040518060400160405280600f81526020017f66726f6d2061646472657373202573000000000000000000000000000000000081525033610521565b600054905090565b60606001805480602002602001604051908101604052809291908181526020016000905b828210156103e057838290600052602060002090600302016040518060600160405290816000820160009054906101000a900473ffffffffffffffffffffffffffffffffffffffff1673ffffffffffffffffffffffffffffffffffffffff1673ffffffffffffffffffffffffffffffffffffffff16815260200160018201805461034590610b76565b80601f016020809104026020016040519081016040528092919081815260200182805461037190610b76565b80156103be5780601f10610393576101008083540402835291602001916103be565b820191906000526020600020905b8154815290600101906020018083116103a157829003601f168201915b50505050508152602001600282015481525050815260200190600101906102bc565b50505050905090565b61047f816040516024016103fd91906108e1565b6040516020818303038152906040527f41304fac000000000000000000000000000000000000000000000000000000007bffffffffffffffffffffffffffffffffffffffffffffffffffffffff19166020820180517bffffffffffffffffffffffffffffffffffffffffffffffffffffffff83818316178352505050506105c3565b50565b61051c83838360405160240161049a93929190610903565b6040516020818303038152906040527fe0e9ad4f000000000000000000000000000000000000000000000000000000007bffffffffffffffffffffffffffffffffffffffffffffffffffffffff19166020820180517bffffffffffffffffffffffffffffffffffffffffffffffffffffffff83818316178352505050506105c3565b505050565b6105bd8484848460405160240161053b9493929190610948565b6040516020818303038152906040527fbb7235e9000000000000000000000000000000000000000000000000000000007bffffffffffffffffffffffffffffffffffffffffffffffffffffffff19166020820180517bffffffffffffffffffffffffffffffffffffffffffffffffffffffff83818316178352505050506105c3565b50505050565b60008151905060006a636f6e736f6c652e6c6f679050602083016000808483855afa5050505050565b8280546105f890610b76565b90600052602060002090601f01602090048101928261061a5760008555610661565b82601f1061063357805160ff1916838001178555610661565b82800160010185558215610661579182015b82811115610660578251825591602001919060010190610645565b5b50905061066e9190610672565b5090565b5b8082111561068b576000816000905550600101610673565b5090565b60006106a261069d84610a0b565b6109e6565b9050828152602081018484840111156106ba57600080fd5b6106c5848285610b34565b509392505050565b600082601f8301126106de57600080fd5b81356106ee84826020860161068f565b91505092915050565b60006020828403121561070957600080fd5b600082013567ffffffffffffffff81111561072357600080fd5b61072f848285016106cd565b91505092915050565b60006107448383610851565b905092915050565b61075581610af8565b82525050565b61076481610af8565b82525050565b600061077582610a4c565b61077f8185610a6f565b93508360208202850161079185610a3c565b8060005b858110156107cd57848403895281516107ae8582610738565b94506107b983610a62565b925060208a01995050600181019050610795565b50829750879550505050505092915050565b60006107ea82610a57565b6107f48185610a80565b9350610804818560208601610b43565b61080d81610c66565b840191505092915050565b600061082382610a57565b61082d8185610a91565b935061083d818560208601610b43565b61084681610c66565b840191505092915050565b6000606083016000830151610869600086018261074c565b506020830151848203602086015261088182826107df565b915050604083015161089660408601826108a1565b508091505092915050565b6108aa81610b2a565b82525050565b6108b981610b2a565b82525050565b600060208201905081810360008301526108d9818461076a565b905092915050565b600060208201905081810360008301526108fb8184610818565b905092915050565b6000606082019050818103600083015261091d8186610818565b905061092c602083018561075b565b818103604083015261093e8184610818565b9050949350505050565b600060808201905081810360008301526109628187610818565b905061097160208301866108b0565b81810360408301526109838185610818565b9050610992606083018461075b565b95945050505050565b60006020820190506109b060008301846108b0565b92915050565b60006040820190506109cb60008301856108b0565b81810360208301526109dd8184610818565b90509392505050565b60006109f0610a01565b90506109fc8282610ba8565b919050565b6000604051905090565b600067ffffffffffffffff821115610a2657610a25610c37565b5b610a2f82610c66565b9050602081019050919050565b6000819050602082019050919050565b600081519050919050565b600081519050919050565b6000602082019050919050565b600082825260208201905092915050565b600082825260208201905092915050565b600082825260208201905092915050565b6000610aad82610b2a565b9150610ab883610b2a565b9250827fffffffffffffffffffffffffffffffffffffffffffffffffffffffffffffffff03821115610aed57610aec610bd9565b5b828201905092915050565b6000610b0382610b0a565b9050919050565b600073ffffffffffffffffffffffffffffffffffffffff82169050919050565b6000819050919050565b82818337600083830152505050565b60005b83811015610b61578082015181840152602081019050610b46565b83811115610b70576000848401525b50505050565b60006002820490506001821680610b8e57607f821691505b60208210811415610ba257610ba1610c08565b5b50919050565b610bb182610c66565b810181811067ffffffffffffffff82111715610bd057610bcf610c37565b5b80604052505050565b7f4e487b7100000000000000000000000000000000000000000000000000000000600052601160045260246000fd5b7f4e487b7100000000000000000000000000000000000000000000000000000000600052602260045260246000fd5b7f4e487b7100000000000000000000000000000000000000000000000000000000600052604160045260246000fd5b6000601f19601f830116905091905056fea2646970667358221220832aeb921f1a190a8cc5e1560e97aa5b4206ec45b425a57391fa59396c01aef464736f6c63430008040033636f6e7374727563746f72206c6f67202d2074686973206973206120736d61727420636f6e7472616374",
  "linkReferences": {},
  "deployedLinkReferences": {}
}